{
    "contractName": "Lock",
    "abi": [
        {
            "inputs": [
                {
                    "internalType": "uint256",
                    "name": "_unlockTime",
                    "type": "uint256"
                }
            ],
            "stateMutability": "payable",
            "type": "constructor"
        },
        {
            "anonymous": false,
            "inputs": [
                {
                    "indexed": false,
                    "internalType": "uint256",
                    "name": "amount",
                    "type": "uint256"
                },
                {
                    "indexed": false,
                    "internalType": "uint256",
                    "name": "when",
                    "type": "uint256"
                }
            ],
            "name": "Withdrawal",
            "type": "event"
        },
        {
            "inputs": [
                {
                    "internalType": "uint256",
                    "name": "_newUnlockTime",
                    "type": "uint256"
                }
            ],
            "name": "extendLock",
            "outputs": [],
            "stateMutability": "nonpayable",
            "type": "function"
        },
        {
            "inputs": [],
            "name": "getBalance",
            "outputs": [
                {
                    "internalType": "uint256",
                    "name": "",
                    "type": "uint256"
                }
            ],
            "stateMutability": "view",
            "type": "function"
        },
        {
            "inputs": [],
            "name": "owner",
            "outputs": [
                {
                    "internalType": "address payable",
                    "name": "",
                    "type": "address"
                }
            ],
            "stateMutability": "view",
            "type": "function"
        },
        {
            "inputs": [],
            "name": "recoverFunds",
            "outputs": [],
            "stateMutability": "nonpayable",
            "type": "function"
        },
        {
            "inputs": [],
            "name": "unlockTime",
            "outputs": [
                {
                    "internalType": "uint256",
                    "name": "",
                    "type": "uint256"
                }
            ],
            "stateMutability": "view",
            "type": "function"
        },
        {
            "inputs": [],
            "name": "withdraw",
            "outputs": [],
            "stateMutability": "nonpayable",
            "type": "function"
        },
        {
            "stateMutability": "payable",
            "type": "receive"
        }
    ],
    "bytecode": "60806040526040516104703803806104708339810160408190526020916096565b428111607e5760405162461bcd60e51b815260206004820152602360248201527f556e6c6f636b2074696d652073686f756c6420626520696e207468652066757460448201526275726560e81b606482015260840160405180910390fd5b5f55600180546001600160a01b0319163317905560ac565b5f6020828403121560a5575f80fd5b5051919050565b6103b7806100b95f395ff3fe608060405260043610610057575f3560e01c806312065fe014610062578063251c1aa3146100835780633ccfd60b1461009757806344ee3a1c146100ad5780638da5cb5b146100cc578063b79550be14610103575f80fd5b3661005e57005b5f80fd5b34801561006d575f80fd5b50475b6040519081526020015b60405180910390f35b34801561008e575f80fd5b506100705f5481565b3480156100a2575f80fd5b506100ab610117565b005b3480156100b8575f80fd5b506100ab6100c736600461033c565b610205565b3480156100d7575f80fd5b506001546100eb906001600160a01b031681565b6040516001600160a01b03909116815260200161007a565b34801561010e575f80fd5b506100ab610291565b5f544210156101665760405162461bcd60e51b8152602060048201526016602482015275165bdd4818d85b89dd081dda5d1a191c985dc81e595d60521b60448201526064015b60405180910390fd5b6001546001600160a01b031633146101905760405162461bcd60e51b815260040161015d90610353565b6040805147808252426020830152917fbf2ed60bd5b5965d685680c01195c9514e4382e28e3a5a2d2d5244bf59411b93910160405180910390a16001546040516001600160a01b039091169082156108fc029083905f818181858888f19350505050158015610201573d5f803e3d5ffd5b5050565b6001546001600160a01b0316331461022f5760405162461bcd60e51b815260040161015d90610353565b5f54811161028d5760405162461bcd60e51b815260206004820152602560248201527f4e657720756e6c6f636b2074696d65206d75737420626520696e207468652066604482015264757475726560d81b606482015260840161015d565b5f55565b6001546001600160a01b031633146102bb5760405162461bcd60e51b815260040161015d90610353565b5f544210156103055760405162461bcd60e51b8152602060048201526016602482015275119d5b991cc8185c99481cdd1a5b1b081b1bd8dad95960521b604482015260640161015d565b60015460405147916001600160a01b03169082156108fc029083905f818181858888f19350505050158015610201573d5f803e3d5ffd5b5f6020828403121561034c575f80fd5b5035919050565b6020808252601490820152732cb7ba9030b932b713ba103a34329037bbb732b960611b60408201526060019056fea2646970667358221220f8bd3b18f9322356eeda7a7c5322568c679f3df93f81603063e1347eebb9859964736f6c634300081a0033",
    "sourcePath": "/home/arhan/algocitrae/contracts/Lock.sol",
    "compiler": {
        "name": "solc",
        "version": "0.8.26+commit.8a97fa7a"
    },
    "functionHashes": {
        "extendLock(uint256)": "44ee3a1c",
        "getBalance()": "12065fe0",
        "owner()": "8da5cb5b",
        "recoverFunds()": "b79550be",
        "unlockTime()": "251c1aa3",
        "withdraw()": "3ccfd60b"
    },
    "gasEstimates": {
        "creation": {
            "codeDepositCost": "190200",
            "executionCost": "infinite",
            "totalCost": "infinite"
        },
        "external": {
            "extendLock(uint256)": "26627",
            "getBalance()": "149",
            "owner()": "2402",
            "recoverFunds()": "infinite",
            "unlockTime()": "2282",
            "withdraw()": "infinite"
        }
    }
}